{
  "_format": "hh-sol-artifact-1",
  "contractName": "MockTokenManager",
  "sourceName": "contracts/mocks/MockTokenManager.sol",
  "abi": [
    {
      "inputs": [
        {
          "internalType": "address",
          "name": "_receiver",
          "type": "address"
        },
        {
          "internalType": "uint256",
          "name": "_amount",
          "type": "uint256"
        },
        {
          "internalType": "uint64",
          "name": "_start",
          "type": "uint64"
        },
        {
          "internalType": "uint64",
          "name": "_cliff",
          "type": "uint64"
        },
        {
          "internalType": "uint64",
          "name": "_vested",
          "type": "uint64"
        },
        {
          "internalType": "bool",
          "name": "_revokable",
          "type": "bool"
        }
      ],
      "name": "assignVested",
      "outputs": [
        {
          "internalType": "uint256",
          "name": "",
          "type": "uint256"
        }
      ],
      "stateMutability": "nonpayable",
      "type": "function"
    }
  ],
  "bytecode": "0x608060405234801561001057600080fd5b50610119806100206000396000f3fe6080604052348015600f57600080fd5b506004361060285760003560e01c806321cb18cd14602d575b600080fd5b60be600480360360c0811015604157600080fd5b81019080803573ffffffffffffffffffffffffffffffffffffffff16906020019092919080359060200190929190803567ffffffffffffffff169060200190929190803567ffffffffffffffff169060200190929190803567ffffffffffffffff16906020019092919080351515906020019092919050505060d4565b6040518082815260200191505060405180910390f35b6000859050969550505050505056fea2646970667358221220e92472dde880cafdc5a82d02f6099e9b16ecd5df355e039d1c153b16df42891c64736f6c63430007030033",
  "linkReferences": {},
  "deployedLinkReferences": {}
}