{
  "_format": "hh-sol-artifact-1",
  "contractName": "GrantRegistry",
  "sourceName": "contracts/GrantRegistry.sol",
  "abi": [
    {
      "inputs": [
        {
          "internalType": "address",
          "name": "_beneficiaryRegistry",
          "type": "address"
        }
      ],
      "stateMutability": "nonpayable",
      "type": "constructor"
    },
    {
      "anonymous": false,
      "inputs": [
        {
          "indexed": true,
          "internalType": "address",
          "name": "_oldAddress",
          "type": "address"
        },
        {
          "indexed": true,
          "internalType": "address",
          "name": "_newAddress",
          "type": "address"
        }
      ],
      "name": "CouncilUpdated",
      "type": "event"
    },
    {
      "anonymous": false,
      "inputs": [
        {
          "indexed": true,
          "internalType": "address",
          "name": "_oldAddress",
          "type": "address"
        },
        {
          "indexed": true,
          "internalType": "address",
          "name": "_newAddress",
          "type": "address"
        }
      ],
      "name": "GovernanceUpdated",
      "type": "event"
    },
    {
      "anonymous": false,
      "inputs": [
        {
          "indexed": false,
          "internalType": "enum GrantRegistry.GrantTerm",
          "name": "grantTerm",
          "type": "uint8"
        },
        {
          "indexed": false,
          "internalType": "address[]",
          "name": "awardees",
          "type": "address[]"
        },
        {
          "indexed": false,
          "internalType": "uint8",
          "name": "grantShareType",
          "type": "uint8"
        },
        {
          "indexed": false,
          "internalType": "uint256[]",
          "name": "shares",
          "type": "uint256[]"
        }
      ],
      "name": "GrantCreated",
      "type": "event"
    },
    {
      "inputs": [
        {
          "internalType": "enum GrantRegistry.GrantTerm",
          "name": "grantTerm",
          "type": "uint8"
        },
        {
          "internalType": "address[]",
          "name": "beneficiaries",
          "type": "address[]"
        },
        {
          "internalType": "uint256[]",
          "name": "shares",
          "type": "uint256[]"
        }
      ],
      "name": "createGrant",
      "outputs": [],
      "stateMutability": "nonpayable",
      "type": "function"
    },
    {
      "inputs": [
        {
          "internalType": "enum GrantRegistry.GrantTerm",
          "name": "grantTerm",
          "type": "uint8"
        }
      ],
      "name": "getActiveAwardees",
      "outputs": [
        {
          "internalType": "address[]",
          "name": "",
          "type": "address[]"
        }
      ],
      "stateMutability": "view",
      "type": "function"
    },
    {
      "inputs": [
        {
          "internalType": "enum GrantRegistry.GrantTerm",
          "name": "grantTerm_",
          "type": "uint8"
        }
      ],
      "name": "getActiveGrant",
      "outputs": [
        {
          "internalType": "uint256",
          "name": "",
          "type": "uint256"
        },
        {
          "internalType": "uint256",
          "name": "",
          "type": "uint256"
        },
        {
          "internalType": "enum GrantRegistry.GrantTerm",
          "name": "",
          "type": "uint8"
        },
        {
          "internalType": "uint8",
          "name": "",
          "type": "uint8"
        },
        {
          "internalType": "uint8",
          "name": "",
          "type": "uint8"
        }
      ],
      "stateMutability": "view",
      "type": "function"
    },
    {
      "inputs": [
        {
          "internalType": "enum GrantRegistry.GrantTerm",
          "name": "grantTerm",
          "type": "uint8"
        }
      ],
      "name": "grantHasExpired",
      "outputs": [
        {
          "internalType": "bool",
          "name": "",
          "type": "bool"
        }
      ],
      "stateMutability": "view",
      "type": "function"
    },
    {
      "inputs": [
        {
          "internalType": "address",
          "name": "_address",
          "type": "address"
        }
      ],
      "name": "setCouncil",
      "outputs": [],
      "stateMutability": "nonpayable",
      "type": "function"
    },
    {
      "inputs": [
        {
          "internalType": "uint8[]",
          "name": "grantTerms",
          "type": "uint8[]"
        }
      ],
      "name": "setEnabledGrantTerms",
      "outputs": [],
      "stateMutability": "nonpayable",
      "type": "function"
    },
    {
      "inputs": [
        {
          "internalType": "address",
          "name": "_address",
          "type": "address"
        }
      ],
      "name": "setGovernance",
      "outputs": [],
      "stateMutability": "nonpayable",
      "type": "function"
    },
    {
      "inputs": [
        {
          "internalType": "uint8",
          "name": "_grantShareType",
          "type": "uint8"
        }
      ],
      "name": "setGrantShareType",
      "outputs": [],
      "stateMutability": "nonpayable",
      "type": "function"
    }
  ],
  "bytecode": "0x608060405234801561001057600080fd5b506040516117c63803806117c68339818101604052602081101561003357600080fd5b8101908080519060200190929190505050336000806101000a81548173ffffffffffffffffffffffffffffffffffffffff021916908373ffffffffffffffffffffffffffffffffffffffff16021790555033600160006101000a81548173ffffffffffffffffffffffffffffffffffffffff021916908373ffffffffffffffffffffffffffffffffffffffff160217905550600160036000600160028111156100d857fe5b60ff1660ff16815260200190815260200160002060006101000a81548160ff0219169083151502179055506001600260146101000a81548160ff021916908360ff16021790555080600260006101000a81548173ffffffffffffffffffffffffffffffffffffffff021916908373ffffffffffffffffffffffffffffffffffffffff16021790555050611656806101706000396000f3fe608060405234801561001057600080fd5b50600436106100885760003560e01c8063ab033ea91161005b578063ab033ea9146102a4578063d9974f78146102e8578063f8620a9a14610361578063fd5610b6146103a857610088565b8063222244ac1461008d57806326b2f36c146101135780633ee646eb146101ee578063a6d80a2714610260575b600080fd5b6100bc600480360360208110156100a357600080fd5b81019080803560ff1690602001909291905050506103d9565b6040518080602001828103825283818151815260200191508051906020019060200280838360005b838110156100ff5780820151818401526020810190506100e4565b505050509050019250505060405180910390f35b6101ec6004803603606081101561012957600080fd5b81019080803560ff1690602001909291908035906020019064010000000081111561015357600080fd5b82018360208201111561016557600080fd5b8035906020019184602083028401116401000000008311171561018757600080fd5b9091929391929390803590602001906401000000008111156101a857600080fd5b8201836020820111156101ba57600080fd5b803590602001918460208302840111640100000000831117156101dc57600080fd5b909192939192939050505061054d565b005b61021d6004803603602081101561020457600080fd5b81019080803560ff169060200190929190505050610ce8565b6040518086815260200185815260200184600281111561023957fe5b81526020018360ff1681526020018260ff1681526020019550505050505060405180910390f35b6102a26004803603602081101561027657600080fd5b81019080803573ffffffffffffffffffffffffffffffffffffffff169060200190929190505050610dcb565b005b6102e6600480360360208110156102ba57600080fd5b81019080803573ffffffffffffffffffffffffffffffffffffffff169060200190929190505050610ff7565b005b61035f600480360360208110156102fe57600080fd5b810190808035906020019064010000000081111561031b57600080fd5b82018360208201111561032d57600080fd5b8035906020019184602083028401116401000000008311171561034f57600080fd5b909192939192939050505061121f565b005b6103906004803603602081101561037757600080fd5b81019080803560ff16906020019092919050505061134f565b60405180821515815260200191505060405180910390f35b6103d7600480360360208110156103be57600080fd5b81019080803560ff169060200190929190505050611382565b005b606060008260028111156103e957fe5b90506060600460008360ff1660ff16815260200190815260200160002060020160029054906101000a900460ff1660ff1667ffffffffffffffff8111801561043057600080fd5b5060405190808252806020026020018201604052801561045f5781602001602082028036833780820191505090505b50905060005b600460008460ff1660ff16815260200190815260200160002060020160029054906101000a900460ff1660ff1681101561054257600560008460ff1660ff16815260200190815260200160002081815481106104bd57fe5b906000526020600020906002020160000160009054906101000a900473ffffffffffffffffffffffffffffffffffffffff168282815181106104fb57fe5b602002602001019073ffffffffffffffffffffffffffffffffffffffff16908173ffffffffffffffffffffffffffffffffffffffff16815250508080600101915050610465565b508092505050919050565b60008054906101000a900473ffffffffffffffffffffffffffffffffffffffff1673ffffffffffffffffffffffffffffffffffffffff163373ffffffffffffffffffffffffffffffffffffffff161461060e576040517f08c379a000000000000000000000000000000000000000000000000000000000815260040180806020018281038252600b8152602001807f21676f7665726e616e636500000000000000000000000000000000000000000081525060200191505060405180910390fd5b6106178561134f565b610689576040517f08c379a000000000000000000000000000000000000000000000000000000000815260040180806020018281038252600d8152602001807f6772616e7449734163746976650000000000000000000000000000000000000081525060200191505060405180910390fd5b6003600086600281111561069957fe5b60ff1660ff16815260200190815260200160002060009054906101000a900460ff1661072d576040517f08c379a00000000000000000000000000000000000000000000000000000000081526004018080602001828103825260128152602001807f6772616e745465726d2064697361626c6564000000000000000000000000000081525060200191505060405180910390fd5b60608484905067ffffffffffffffff8111801561074957600080fd5b506040519080825280602002602001820160405280156107785781602001602082028036833780820191505090505b50905060608585905067ffffffffffffffff8111801561079757600080fd5b506040519080825280602002602001820160405280156107c65781602001602082028036833780820191505090505b50905060008760028111156107d757fe5b90506040518060a001604052804281526020016107f38a6114ee565b4201815260200189600281111561080657fe5b8152602001600260149054906101000a900460ff1660ff168152602001600060ff16815250600460008360ff1660ff168152602001908152602001600020600082015181600001556020820151816001015560408201518160020160006101000a81548160ff0219169083600281111561087c57fe5b021790555060608201518160020160016101000a81548160ff021916908360ff16021790555060808201518160020160026101000a81548160ff021916908360ff16021790555090505060005b87879050811015610bef57600260009054906101000a900473ffffffffffffffffffffffffffffffffffffffff1673ffffffffffffffffffffffffffffffffffffffff166375e71d6d89898481811061091e57fe5b9050602002013573ffffffffffffffffffffffffffffffffffffffff166040518263ffffffff1660e01b8152600401808273ffffffffffffffffffffffffffffffffffffffff16815260200191505060206040518083038186803b15801561098557600080fd5b505afa158015610999573d6000803e3d6000fd5b505050506040513d60208110156109af57600080fd5b810190808051906020019092919050505015610be2578787828181106109d157fe5b9050602002013573ffffffffffffffffffffffffffffffffffffffff168482815181106109fa57fe5b602002602001019073ffffffffffffffffffffffffffffffffffffffff16908173ffffffffffffffffffffffffffffffffffffffff1681525050858582818110610a4057fe5b90506020020135838281518110610a5357fe5b602002602001018181525050600460008360ff1660ff168152602001908152602001600020600201600281819054906101000a900460ff168092919060010191906101000a81548160ff021916908360ff16021790555050600560008360ff1660ff16815260200190815260200160002060405180606001604052808a8a6000818110610adc57fe5b9050602002013573ffffffffffffffffffffffffffffffffffffffff1673ffffffffffffffffffffffffffffffffffffffff1681526020018b6002811115610b2057fe5b815260200188886000818110610b3257fe5b90506020020135815250908060018154018082558091505060019003906000526020600020906002020160009091909190915060008201518160000160006101000a81548173ffffffffffffffffffffffffffffffffffffffff021916908373ffffffffffffffffffffffffffffffffffffffff16021790555060208201518160000160146101000a81548160ff02191690836002811115610bd057fe5b02179055506040820151816001015550505b80806001019150506108c9565b507f304437f3c54924387701df34182f54d02676f1bc4dcb81f65173499b246a76398884600260149054906101000a900460ff168560405180856002811115610c3457fe5b8152602001806020018460ff16815260200180602001838103835286818151815260200191508051906020019060200280838360005b83811015610c85578082015181840152602081019050610c6a565b50505050905001838103825284818151815260200191508051906020019060200280838360005b83811015610cc7578082015181840152602081019050610cac565b50505050905001965050505050505060405180910390a15050505050505050565b600080600080600080866002811115610cfd57fe5b9050600460008260ff1660ff16815260200190815260200160002060000154600460008360ff1660ff16815260200190815260200160002060010154600460008460ff1660ff16815260200190815260200160002060020160009054906101000a900460ff16600460008560ff1660ff16815260200190815260200160002060020160019054906101000a900460ff16600460008660ff1660ff16815260200190815260200160002060020160029054906101000a900460ff16955095509550955095505091939590929450565b600160009054906101000a900473ffffffffffffffffffffffffffffffffffffffff1673ffffffffffffffffffffffffffffffffffffffff163373ffffffffffffffffffffffffffffffffffffffff1614610e8e576040517f08c379a00000000000000000000000000000000000000000000000000000000081526004018080602001828103825260088152602001807f21636f756e63696c00000000000000000000000000000000000000000000000081525060200191505060405180910390fd5b808073ffffffffffffffffffffffffffffffffffffffff168173ffffffffffffffffffffffffffffffffffffffff1614610f30576040517f08c379a000000000000000000000000000000000000000000000000000000000815260040180806020018281038252600f8152602001807f696e76616c69642061646472657373000000000000000000000000000000000081525060200191505060405180910390fd5b6000600160009054906101000a900473ffffffffffffffffffffffffffffffffffffffff16905082600160006101000a81548173ffffffffffffffffffffffffffffffffffffffff021916908373ffffffffffffffffffffffffffffffffffffffff1602179055508273ffffffffffffffffffffffffffffffffffffffff168173ffffffffffffffffffffffffffffffffffffffff167ff9b44e2878878d05524a3b43b39400b062ad001a332fe447f97053d9312a11a160405160405180910390a3505050565b60008054906101000a900473ffffffffffffffffffffffffffffffffffffffff1673ffffffffffffffffffffffffffffffffffffffff163373ffffffffffffffffffffffffffffffffffffffff16146110b8576040517f08c379a000000000000000000000000000000000000000000000000000000000815260040180806020018281038252600b8152602001807f21676f7665726e616e636500000000000000000000000000000000000000000081525060200191505060405180910390fd5b808073ffffffffffffffffffffffffffffffffffffffff168173ffffffffffffffffffffffffffffffffffffffff161461115a576040517f08c379a000000000000000000000000000000000000000000000000000000000815260040180806020018281038252600f8152602001807f696e76616c69642061646472657373000000000000000000000000000000000081525060200191505060405180910390fd5b60008060009054906101000a900473ffffffffffffffffffffffffffffffffffffffff169050826000806101000a81548173ffffffffffffffffffffffffffffffffffffffff021916908373ffffffffffffffffffffffffffffffffffffffff1602179055508273ffffffffffffffffffffffffffffffffffffffff168173ffffffffffffffffffffffffffffffffffffffff167f434a2db650703b36c824e745330d6397cdaa9ee2cc891a4938ae853e1c50b68d60405160405180910390a3505050565b60008054906101000a900473ffffffffffffffffffffffffffffffffffffffff1673ffffffffffffffffffffffffffffffffffffffff163373ffffffffffffffffffffffffffffffffffffffff16146112e0576040517f08c379a000000000000000000000000000000000000000000000000000000000815260040180806020018281038252600b8152602001807f21676f7665726e616e636500000000000000000000000000000000000000000081525060200191505060405180910390fd5b6112e8611566565b60005b8282905081101561134a5760016003600085858581811061130857fe5b9050602002013560ff1660ff1660ff16815260200190815260200160002060006101000a81548160ff02191690831515021790555080806001019150506112eb565b505050565b6000426004600084600281111561136257fe5b60ff1660ff16815260200190815260200160002060010154109050919050565b60008054906101000a900473ffffffffffffffffffffffffffffffffffffffff1673ffffffffffffffffffffffffffffffffffffffff163373ffffffffffffffffffffffffffffffffffffffff1614611443576040517f08c379a000000000000000000000000000000000000000000000000000000000815260040180806020018281038252600b8152602001807f21676f7665726e616e636500000000000000000000000000000000000000000081525060200191505060405180910390fd5b600160ff168160ff16148061145e5750600260ff168160ff16145b6114d0576040517f08c379a00000000000000000000000000000000000000000000000000000000081526004018080602001828103825260078152602001807f696e76616c69640000000000000000000000000000000000000000000000000081525060200191505060405180910390fd5b80600260146101000a81548160ff021916908360ff16021790555050565b60008060028111156114fc57fe5b82600281111561150857fe5b14156115155762278d0090505b6001600281111561152257fe5b82600281111561152e57fe5b141561153b576276a70090505b60028081111561154757fe5b82600281111561155357fe5b1415611561576301da9c0090505b919050565b60006003600080600281111561157857fe5b60ff1660ff16815260200190815260200160002060006101000a81548160ff021916908315150217905550600060036000600160028111156115b657fe5b60ff1660ff16815260200190815260200160002060006101000a81548160ff0219169083151502179055506000600360006002808111156115f357fe5b60ff1660ff16815260200190815260200160002060006101000a81548160ff02191690831515021790555056fea264697066735822122046437aaaae15b4b6892b3cb7feab01ffcd72b36ea989880f01a65549cb189f8764736f6c63430007030033",
  "linkReferences": {},
  "deployedLinkReferences": {}
}