{
  "_format": "hh-sol-artifact-1",
  "contractName": "GrantRegistry",
  "sourceName": "contracts/GrantRegistry.sol",
  "abi": [
    {
      "inputs": [
        {
          "internalType": "address",
          "name": "_beneficiaryRegistry",
          "type": "address"
        }
      ],
      "stateMutability": "nonpayable",
      "type": "constructor"
    },
    {
      "anonymous": false,
      "inputs": [
        {
          "indexed": true,
          "internalType": "address",
          "name": "_oldAddress",
          "type": "address"
        },
        {
          "indexed": true,
          "internalType": "address",
          "name": "_newAddress",
          "type": "address"
        }
      ],
      "name": "CouncilUpdated",
      "type": "event"
    },
    {
      "anonymous": false,
      "inputs": [
        {
          "indexed": true,
          "internalType": "address",
          "name": "_oldAddress",
          "type": "address"
        },
        {
          "indexed": true,
          "internalType": "address",
          "name": "_newAddress",
          "type": "address"
        }
      ],
      "name": "GovernanceUpdated",
      "type": "event"
    },
    {
      "anonymous": false,
      "inputs": [
        {
          "indexed": false,
          "internalType": "uint8",
          "name": "termLength",
          "type": "uint8"
        },
        {
          "indexed": false,
          "internalType": "address[]",
          "name": "awardees",
          "type": "address[]"
        },
        {
          "indexed": false,
          "internalType": "uint8",
          "name": "grantShareType",
          "type": "uint8"
        },
        {
          "indexed": false,
          "internalType": "bytes32",
          "name": "shares",
          "type": "bytes32"
        }
      ],
      "name": "GrantCreated",
      "type": "event"
    },
    {
      "inputs": [
        {
          "internalType": "uint8",
          "name": "termLength",
          "type": "uint8"
        },
        {
          "internalType": "address[]",
          "name": "beneficiaries",
          "type": "address[]"
        },
        {
          "internalType": "uint256[]",
          "name": "shares",
          "type": "uint256[]"
        }
      ],
      "name": "createGrant",
      "outputs": [],
      "stateMutability": "nonpayable",
      "type": "function"
    },
    {
      "inputs": [
        {
          "internalType": "uint8",
          "name": "termLength",
          "type": "uint8"
        }
      ],
      "name": "grantHasExpired",
      "outputs": [
        {
          "internalType": "bool",
          "name": "",
          "type": "bool"
        }
      ],
      "stateMutability": "view",
      "type": "function"
    },
    {
      "inputs": [
        {
          "internalType": "address",
          "name": "_address",
          "type": "address"
        }
      ],
      "name": "setCouncil",
      "outputs": [],
      "stateMutability": "nonpayable",
      "type": "function"
    },
    {
      "inputs": [
        {
          "internalType": "uint8[]",
          "name": "grantTerms",
          "type": "uint8[]"
        }
      ],
      "name": "setEnabledGrantTerms",
      "outputs": [],
      "stateMutability": "nonpayable",
      "type": "function"
    },
    {
      "inputs": [
        {
          "internalType": "address",
          "name": "_address",
          "type": "address"
        }
      ],
      "name": "setGovernance",
      "outputs": [],
      "stateMutability": "nonpayable",
      "type": "function"
    },
    {
      "inputs": [
        {
          "internalType": "uint8",
          "name": "_grantShareType",
          "type": "uint8"
        }
      ],
      "name": "setGrantShareType",
      "outputs": [],
      "stateMutability": "nonpayable",
      "type": "function"
    }
  ],
  "bytecode": "0x6080604052611917600455601e6004540260055560036005540260065561016d6004540260075534801561003257600080fd5b506040516113f53803806113f58339818101604052602081101561005557600080fd5b8101908080519060200190929190505050336000806101000a81548173ffffffffffffffffffffffffffffffffffffffff021916908373ffffffffffffffffffffffffffffffffffffffff16021790555033600160006101000a81548173ffffffffffffffffffffffffffffffffffffffff021916908373ffffffffffffffffffffffffffffffffffffffff160217905550600160036000600260ff1660ff16815260200190815260200160002060006101000a81548160ff0219169083151502179055506001600260146101000a81548160ff021916908360ff16021790555080600260006101000a81548173ffffffffffffffffffffffffffffffffffffffff021916908373ffffffffffffffffffffffffffffffffffffffff1602179055505061126e806101876000396000f3fe608060405234801561001057600080fd5b50600436106100625760003560e01c806326b2f36c14610067578063a6d80a2714610142578063ab033ea914610186578063d9974f78146101ca578063f8620a9a14610243578063fd5610b61461028a575b600080fd5b6101406004803603606081101561007d57600080fd5b81019080803560ff169060200190929190803590602001906401000000008111156100a757600080fd5b8201836020820111156100b957600080fd5b803590602001918460208302840111640100000000831117156100db57600080fd5b9091929391929390803590602001906401000000008111156100fc57600080fd5b82018360208201111561010e57600080fd5b8035906020019184602083028401116401000000008311171561013057600080fd5b90919293919293905050506102bb565b005b6101846004803603602081101561015857600080fd5b81019080803573ffffffffffffffffffffffffffffffffffffffff169060200190929190505050610934565b005b6101c86004803603602081101561019c57600080fd5b81019080803573ffffffffffffffffffffffffffffffffffffffff169060200190929190505050610b60565b005b610241600480360360208110156101e057600080fd5b81019080803590602001906401000000008111156101fd57600080fd5b82018360208201111561020f57600080fd5b8035906020019184602083028401116401000000008311171561023157600080fd5b9091929391929390505050610d88565b005b6102726004803603602081101561025957600080fd5b81019080803560ff169060200190929190505050610eb8565b60405180821515815260200191505060405180910390f35b6102b9600480360360208110156102a057600080fd5b81019080803560ff169060200190929190505050610ee0565b005b60008054906101000a900473ffffffffffffffffffffffffffffffffffffffff1673ffffffffffffffffffffffffffffffffffffffff163373ffffffffffffffffffffffffffffffffffffffff161461037c576040517f08c379a000000000000000000000000000000000000000000000000000000000815260040180806020018281038252600b8152602001807f21676f7665726e616e636500000000000000000000000000000000000000000081525060200191505060405180910390fd5b61038585610eb8565b6103f7576040517f08c379a000000000000000000000000000000000000000000000000000000000815260040180806020018281038252600d8152602001807f6772616e7449734163746976650000000000000000000000000000000000000081525060200191505060405180910390fd5b600360008660ff1660ff16815260200190815260200160002060009054906101000a900460ff16610490576040517f08c379a00000000000000000000000000000000000000000000000000000000081526004018080602001828103825260138152602001807f7465726d4c656e6774682064697361626c65640000000000000000000000000081525060200191505060405180910390fd5b6000600260009054906101000a900473ffffffffffffffffffffffffffffffffffffffff169050600080600080600090505b88889050811015610750578473ffffffffffffffffffffffffffffffffffffffff166375e71d6d8a8a848181106104f557fe5b9050602002013573ffffffffffffffffffffffffffffffffffffffff166040518263ffffffff1660e01b8152600401808273ffffffffffffffffffffffffffffffffffffffff16815260200191505060206040518083038186803b15801561055c57600080fd5b505afa158015610570573d6000803e3d6000fd5b505050506040513d602081101561058657600080fd5b81019080805190602001909291905050501561074357828989838181106105a957fe5b9050602002013573ffffffffffffffffffffffffffffffffffffffff169080600181540180825580915050600190039060005260206000200160009091909190916101000a81548173ffffffffffffffffffffffffffffffffffffffff021916908373ffffffffffffffffffffffffffffffffffffffff1602179055508187878381811061063357fe5b9050602002013590806001815401808255809150506001900390600052602060002001600090919091909150558360405180604001604052808b8b8581811061067857fe5b9050602002013573ffffffffffffffffffffffffffffffffffffffff1673ffffffffffffffffffffffffffffffffffffffff1681526020018989858181106106bc57fe5b90506020020135815250908060018154018082558091505060019003906000526020600020906002020160009091909190915060008201518160000160006101000a81548173ffffffffffffffffffffffffffffffffffffffff021916908373ffffffffffffffffffffffffffffffffffffffff1602179055506020820151816001015550505b80806001019150506104c2565b5082600960008b60ff1660ff168152602001908152602001600020908054610779929190611129565b5060405180608001604052804381526020016107978b60ff1661104c565b430181526020018a60ff168152602001600260149054906101000a900460ff1660ff16815250600860008b60ff1660ff168152602001908152602001600020600082015181600001556020820151816001015560408201518160020155606082015181600301559050507f283fec51c613975f301c7658c0bf3f7286ef1d302979dc29254f7a9ade9836e38983600260149054906101000a900460ff168460405160200180828054801561086a57602002820191906000526020600020905b815481526020019060010190808311610856575b505091505060405160208183030381529060405280519060200120604051808560ff168152602001806020018460ff168152602001838152602001828103825285818154815260200191508054801561091857602002820191906000526020600020905b8160009054906101000a900473ffffffffffffffffffffffffffffffffffffffff1673ffffffffffffffffffffffffffffffffffffffff16815260200190600101908083116108ce575b50509550505050505060405180910390a1505050505050505050565b808073ffffffffffffffffffffffffffffffffffffffff168173ffffffffffffffffffffffffffffffffffffffff16146109d6576040517f08c379a000000000000000000000000000000000000000000000000000000000815260040180806020018281038252600f8152602001807f696e76616c69642061646472657373000000000000000000000000000000000081525060200191505060405180910390fd5b600160009054906101000a900473ffffffffffffffffffffffffffffffffffffffff1673ffffffffffffffffffffffffffffffffffffffff163373ffffffffffffffffffffffffffffffffffffffff1614610a99576040517f08c379a00000000000000000000000000000000000000000000000000000000081526004018080602001828103825260088152602001807f21636f756e63696c00000000000000000000000000000000000000000000000081525060200191505060405180910390fd5b6000600160009054906101000a900473ffffffffffffffffffffffffffffffffffffffff16905082600160006101000a81548173ffffffffffffffffffffffffffffffffffffffff021916908373ffffffffffffffffffffffffffffffffffffffff1602179055508273ffffffffffffffffffffffffffffffffffffffff168173ffffffffffffffffffffffffffffffffffffffff167ff9b44e2878878d05524a3b43b39400b062ad001a332fe447f97053d9312a11a160405160405180910390a3505050565b808073ffffffffffffffffffffffffffffffffffffffff168173ffffffffffffffffffffffffffffffffffffffff1614610c02576040517f08c379a000000000000000000000000000000000000000000000000000000000815260040180806020018281038252600f8152602001807f696e76616c69642061646472657373000000000000000000000000000000000081525060200191505060405180910390fd5b60008054906101000a900473ffffffffffffffffffffffffffffffffffffffff1673ffffffffffffffffffffffffffffffffffffffff163373ffffffffffffffffffffffffffffffffffffffff1614610cc3576040517f08c379a000000000000000000000000000000000000000000000000000000000815260040180806020018281038252600b8152602001807f21676f7665726e616e636500000000000000000000000000000000000000000081525060200191505060405180910390fd5b60008060009054906101000a900473ffffffffffffffffffffffffffffffffffffffff169050826000806101000a81548173ffffffffffffffffffffffffffffffffffffffff021916908373ffffffffffffffffffffffffffffffffffffffff1602179055508273ffffffffffffffffffffffffffffffffffffffff168173ffffffffffffffffffffffffffffffffffffffff167f434a2db650703b36c824e745330d6397cdaa9ee2cc891a4938ae853e1c50b68d60405160405180910390a3505050565b60008054906101000a900473ffffffffffffffffffffffffffffffffffffffff1673ffffffffffffffffffffffffffffffffffffffff163373ffffffffffffffffffffffffffffffffffffffff1614610e49576040517f08c379a000000000000000000000000000000000000000000000000000000000815260040180806020018281038252600b8152602001807f21676f7665726e616e636500000000000000000000000000000000000000000081525060200191505060405180910390fd5b610e5161108e565b60005b82829050811015610eb357600160036000858585818110610e7157fe5b9050602002013560ff1660ff1660ff16815260200190815260200160002060006101000a81548160ff0219169083151502179055508080600101915050610e54565b505050565b600043600860008460ff1660ff16815260200190815260200160002060010154109050919050565b60008054906101000a900473ffffffffffffffffffffffffffffffffffffffff1673ffffffffffffffffffffffffffffffffffffffff163373ffffffffffffffffffffffffffffffffffffffff1614610fa1576040517f08c379a000000000000000000000000000000000000000000000000000000000815260040180806020018281038252600b8152602001807f21676f7665726e616e636500000000000000000000000000000000000000000081525060200191505060405180910390fd5b600160ff168160ff161480610fbc5750600260ff168160ff16145b61102e576040517f08c379a00000000000000000000000000000000000000000000000000000000081526004018080602001828103825260078152602001807f696e76616c69640000000000000000000000000000000000000000000000000081525060200191505060405180910390fd5b80600260146101000a81548160ff021916908360ff16021790555050565b600080600160ff168314156110615760055490505b600260ff168314156110735760065490505b600360ff168314156110855760075490505b80915050919050565b600060036000600160ff1660ff16815260200190815260200160002060006101000a81548160ff021916908315150217905550600060036000600260ff1660ff16815260200190815260200160002060006101000a81548160ff021916908315150217905550600060036000600360ff1660ff16815260200190815260200160002060006101000a81548160ff021916908315150217905550565b8280548282559060005260206000209060020281019282156111e15760005260206000209160020282015b828111156111e05782826000820160009054906101000a900473ffffffffffffffffffffffffffffffffffffffff168160000160006101000a81548173ffffffffffffffffffffffffffffffffffffffff021916908373ffffffffffffffffffffffffffffffffffffffff16021790555060018201548160010155505091600201919060020190611154565b5b5090506111ee91906111f2565b5090565b5b8082111561123457600080820160006101000a81549073ffffffffffffffffffffffffffffffffffffffff02191690556001820160009055506002016111f3565b509056fea2646970667358221220876f915527156f30f33c25576578e8d23d7597ad6a734dbbf41d69b99c55798f64736f6c63430007030033",
  "linkReferences": {},
  "deployedLinkReferences": {}
}