{
  "_format": "hh-sol-artifact-1",
  "contractName": "GrantRegistry",
  "sourceName": "contracts/GrantRegistry.sol",
  "abi": [
    {
      "inputs": [
        {
          "internalType": "address",
          "name": "_beneficiaryRegistry",
          "type": "address"
        }
      ],
      "stateMutability": "nonpayable",
      "type": "constructor"
    },
    {
      "anonymous": false,
      "inputs": [
        {
          "indexed": true,
          "internalType": "address",
          "name": "_oldAddress",
          "type": "address"
        },
        {
          "indexed": true,
          "internalType": "address",
          "name": "_newAddress",
          "type": "address"
        }
      ],
      "name": "CouncilUpdated",
      "type": "event"
    },
    {
      "anonymous": false,
      "inputs": [
        {
          "indexed": true,
          "internalType": "address",
          "name": "_oldAddress",
          "type": "address"
        },
        {
          "indexed": true,
          "internalType": "address",
          "name": "_newAddress",
          "type": "address"
        }
      ],
      "name": "GovernanceUpdated",
      "type": "event"
    },
    {
      "anonymous": false,
      "inputs": [
        {
          "indexed": false,
          "internalType": "uint8",
          "name": "termLength",
          "type": "uint8"
        },
        {
          "indexed": false,
          "internalType": "address[]",
          "name": "awardees",
          "type": "address[]"
        },
        {
          "indexed": false,
          "internalType": "uint8",
          "name": "grantShareType",
          "type": "uint8"
        },
        {
          "indexed": false,
          "internalType": "uint256[]",
          "name": "shares",
          "type": "uint256[]"
        }
      ],
      "name": "GrantCreated",
      "type": "event"
    },
    {
      "inputs": [
        {
          "internalType": "uint8",
          "name": "termLength",
          "type": "uint8"
        },
        {
          "internalType": "address[]",
          "name": "beneficiaries",
          "type": "address[]"
        },
        {
          "internalType": "uint256[]",
          "name": "shares",
          "type": "uint256[]"
        }
      ],
      "name": "createGrant",
      "outputs": [],
      "stateMutability": "nonpayable",
      "type": "function"
    },
    {
      "inputs": [
        {
          "internalType": "uint8",
          "name": "termLength",
          "type": "uint8"
        }
      ],
      "name": "grantHasExpired",
      "outputs": [
        {
          "internalType": "bool",
          "name": "",
          "type": "bool"
        }
      ],
      "stateMutability": "view",
      "type": "function"
    },
    {
      "inputs": [
        {
          "internalType": "address",
          "name": "_address",
          "type": "address"
        }
      ],
      "name": "setCouncil",
      "outputs": [],
      "stateMutability": "nonpayable",
      "type": "function"
    },
    {
      "inputs": [
        {
          "internalType": "uint8[]",
          "name": "grantTerms",
          "type": "uint8[]"
        }
      ],
      "name": "setEnabledGrantTerms",
      "outputs": [],
      "stateMutability": "nonpayable",
      "type": "function"
    },
    {
      "inputs": [
        {
          "internalType": "address",
          "name": "_address",
          "type": "address"
        }
      ],
      "name": "setGovernance",
      "outputs": [],
      "stateMutability": "nonpayable",
      "type": "function"
    },
    {
      "inputs": [
        {
          "internalType": "uint8",
          "name": "_grantShareType",
          "type": "uint8"
        }
      ],
      "name": "setGrantShareType",
      "outputs": [],
      "stateMutability": "nonpayable",
      "type": "function"
    }
  ],
  "bytecode": "0x6080604052611917600455601e6004540260055560036005540260065561016d6004540260075534801561003257600080fd5b506040516113863803806113868339818101604052602081101561005557600080fd5b8101908080519060200190929190505050336000806101000a81548173ffffffffffffffffffffffffffffffffffffffff021916908373ffffffffffffffffffffffffffffffffffffffff16021790555033600160006101000a81548173ffffffffffffffffffffffffffffffffffffffff021916908373ffffffffffffffffffffffffffffffffffffffff160217905550600160036000600260ff1660ff16815260200190815260200160002060006101000a81548160ff0219169083151502179055506001600260146101000a81548160ff021916908360ff16021790555080600260006101000a81548173ffffffffffffffffffffffffffffffffffffffff021916908373ffffffffffffffffffffffffffffffffffffffff160217905550506111ff806101876000396000f3fe608060405234801561001057600080fd5b50600436106100625760003560e01c806326b2f36c14610067578063a6d80a2714610142578063ab033ea914610186578063d9974f78146101ca578063f8620a9a14610243578063fd5610b61461028a575b600080fd5b6101406004803603606081101561007d57600080fd5b81019080803560ff169060200190929190803590602001906401000000008111156100a757600080fd5b8201836020820111156100b957600080fd5b803590602001918460208302840111640100000000831117156100db57600080fd5b9091929391929390803590602001906401000000008111156100fc57600080fd5b82018360208201111561010e57600080fd5b8035906020019184602083028401116401000000008311171561013057600080fd5b90919293919293905050506102bb565b005b6101846004803603602081101561015857600080fd5b81019080803573ffffffffffffffffffffffffffffffffffffffff1690602001909291905050506108c5565b005b6101c86004803603602081101561019c57600080fd5b81019080803573ffffffffffffffffffffffffffffffffffffffff169060200190929190505050610af1565b005b610241600480360360208110156101e057600080fd5b81019080803590602001906401000000008111156101fd57600080fd5b82018360208201111561020f57600080fd5b8035906020019184602083028401116401000000008311171561023157600080fd5b9091929391929390505050610d19565b005b6102726004803603602081101561025957600080fd5b81019080803560ff169060200190929190505050610e49565b60405180821515815260200191505060405180910390f35b6102b9600480360360208110156102a057600080fd5b81019080803560ff169060200190929190505050610e71565b005b60008054906101000a900473ffffffffffffffffffffffffffffffffffffffff1673ffffffffffffffffffffffffffffffffffffffff163373ffffffffffffffffffffffffffffffffffffffff161461037c576040517f08c379a000000000000000000000000000000000000000000000000000000000815260040180806020018281038252600b8152602001807f21676f7665726e616e636500000000000000000000000000000000000000000081525060200191505060405180910390fd5b61038585610e49565b6103f7576040517f08c379a000000000000000000000000000000000000000000000000000000000815260040180806020018281038252600d8152602001807f6772616e7449734163746976650000000000000000000000000000000000000081525060200191505060405180910390fd5b600360008660ff1660ff16815260200190815260200160002060009054906101000a900460ff16610490576040517f08c379a00000000000000000000000000000000000000000000000000000000081526004018080602001828103825260138152602001807f7465726d4c656e6774682064697361626c65640000000000000000000000000081525060200191505060405180910390fd5b6000600260009054906101000a900473ffffffffffffffffffffffffffffffffffffffff169050600060608060005b88889050811015610723578473ffffffffffffffffffffffffffffffffffffffff166375e71d6d8a8a848181106104f257fe5b9050602002013573ffffffffffffffffffffffffffffffffffffffff166040518263ffffffff1660e01b8152600401808273ffffffffffffffffffffffffffffffffffffffff16815260200191505060206040518083038186803b15801561055957600080fd5b505afa15801561056d573d6000803e3d6000fd5b505050506040513d602081101561058357600080fd5b810190808051906020019092919050505015610716578888828181106105a557fe5b9050602002013573ffffffffffffffffffffffffffffffffffffffff168382815181106105ce57fe5b602002602001019073ffffffffffffffffffffffffffffffffffffffff16908173ffffffffffffffffffffffffffffffffffffffff168152505086868281811061061457fe5b9050602002013582828151811061062757fe5b6020026020010181815250508360405180604001604052808b8b8581811061064b57fe5b9050602002013573ffffffffffffffffffffffffffffffffffffffff1673ffffffffffffffffffffffffffffffffffffffff16815260200189898581811061068f57fe5b90506020020135815250908060018154018082558091505060019003906000526020600020906002020160009091909190915060008201518160000160006101000a81548173ffffffffffffffffffffffffffffffffffffffff021916908373ffffffffffffffffffffffffffffffffffffffff1602179055506020820151816001015550505b80806001019150506104bf565b5082600960008b60ff1660ff16815260200190815260200160002090805461074c9291906110ba565b50604051806080016040528043815260200161076a8b60ff16610fdd565b430181526020018a60ff168152602001600260149054906101000a900460ff1660ff16815250600860008b60ff1660ff168152602001908152602001600020600082015181600001556020820151816001015560408201518160020155606082015181600301559050507f304437f3c54924387701df34182f54d02676f1bc4dcb81f65173499b246a76398983600260149054906101000a900460ff1684604051808560ff168152602001806020018460ff16815260200180602001838103835286818151815260200191508051906020019060200280838360005b83811015610861578082015181840152602081019050610846565b50505050905001838103825284818151815260200191508051906020019060200280838360005b838110156108a3578082015181840152602081019050610888565b50505050905001965050505050505060405180910390a1505050505050505050565b808073ffffffffffffffffffffffffffffffffffffffff168173ffffffffffffffffffffffffffffffffffffffff1614610967576040517f08c379a000000000000000000000000000000000000000000000000000000000815260040180806020018281038252600f8152602001807f696e76616c69642061646472657373000000000000000000000000000000000081525060200191505060405180910390fd5b600160009054906101000a900473ffffffffffffffffffffffffffffffffffffffff1673ffffffffffffffffffffffffffffffffffffffff163373ffffffffffffffffffffffffffffffffffffffff1614610a2a576040517f08c379a00000000000000000000000000000000000000000000000000000000081526004018080602001828103825260088152602001807f21636f756e63696c00000000000000000000000000000000000000000000000081525060200191505060405180910390fd5b6000600160009054906101000a900473ffffffffffffffffffffffffffffffffffffffff16905082600160006101000a81548173ffffffffffffffffffffffffffffffffffffffff021916908373ffffffffffffffffffffffffffffffffffffffff1602179055508273ffffffffffffffffffffffffffffffffffffffff168173ffffffffffffffffffffffffffffffffffffffff167ff9b44e2878878d05524a3b43b39400b062ad001a332fe447f97053d9312a11a160405160405180910390a3505050565b808073ffffffffffffffffffffffffffffffffffffffff168173ffffffffffffffffffffffffffffffffffffffff1614610b93576040517f08c379a000000000000000000000000000000000000000000000000000000000815260040180806020018281038252600f8152602001807f696e76616c69642061646472657373000000000000000000000000000000000081525060200191505060405180910390fd5b60008054906101000a900473ffffffffffffffffffffffffffffffffffffffff1673ffffffffffffffffffffffffffffffffffffffff163373ffffffffffffffffffffffffffffffffffffffff1614610c54576040517f08c379a000000000000000000000000000000000000000000000000000000000815260040180806020018281038252600b8152602001807f21676f7665726e616e636500000000000000000000000000000000000000000081525060200191505060405180910390fd5b60008060009054906101000a900473ffffffffffffffffffffffffffffffffffffffff169050826000806101000a81548173ffffffffffffffffffffffffffffffffffffffff021916908373ffffffffffffffffffffffffffffffffffffffff1602179055508273ffffffffffffffffffffffffffffffffffffffff168173ffffffffffffffffffffffffffffffffffffffff167f434a2db650703b36c824e745330d6397cdaa9ee2cc891a4938ae853e1c50b68d60405160405180910390a3505050565b60008054906101000a900473ffffffffffffffffffffffffffffffffffffffff1673ffffffffffffffffffffffffffffffffffffffff163373ffffffffffffffffffffffffffffffffffffffff1614610dda576040517f08c379a000000000000000000000000000000000000000000000000000000000815260040180806020018281038252600b8152602001807f21676f7665726e616e636500000000000000000000000000000000000000000081525060200191505060405180910390fd5b610de261101f565b60005b82829050811015610e4457600160036000858585818110610e0257fe5b9050602002013560ff1660ff1660ff16815260200190815260200160002060006101000a81548160ff0219169083151502179055508080600101915050610de5565b505050565b600043600860008460ff1660ff16815260200190815260200160002060010154109050919050565b60008054906101000a900473ffffffffffffffffffffffffffffffffffffffff1673ffffffffffffffffffffffffffffffffffffffff163373ffffffffffffffffffffffffffffffffffffffff1614610f32576040517f08c379a000000000000000000000000000000000000000000000000000000000815260040180806020018281038252600b8152602001807f21676f7665726e616e636500000000000000000000000000000000000000000081525060200191505060405180910390fd5b600160ff168160ff161480610f4d5750600260ff168160ff16145b610fbf576040517f08c379a00000000000000000000000000000000000000000000000000000000081526004018080602001828103825260078152602001807f696e76616c69640000000000000000000000000000000000000000000000000081525060200191505060405180910390fd5b80600260146101000a81548160ff021916908360ff16021790555050565b600080600160ff16831415610ff25760055490505b600260ff168314156110045760065490505b600360ff168314156110165760075490505b80915050919050565b600060036000600160ff1660ff16815260200190815260200160002060006101000a81548160ff021916908315150217905550600060036000600260ff1660ff16815260200190815260200160002060006101000a81548160ff021916908315150217905550600060036000600360ff1660ff16815260200190815260200160002060006101000a81548160ff021916908315150217905550565b8280548282559060005260206000209060020281019282156111725760005260206000209160020282015b828111156111715782826000820160009054906101000a900473ffffffffffffffffffffffffffffffffffffffff168160000160006101000a81548173ffffffffffffffffffffffffffffffffffffffff021916908373ffffffffffffffffffffffffffffffffffffffff160217905550600182015481600101555050916002019190600201906110e5565b5b50905061117f9190611183565b5090565b5b808211156111c557600080820160006101000a81549073ffffffffffffffffffffffffffffffffffffffff0219169055600182016000905550600201611184565b509056fea2646970667358221220082c97d0566ff91ff1848dbe18baab9ba6a2801aa7635ecd2af5f17bc4c4061a64736f6c63430007030033",
  "linkReferences": {},
  "deployedLinkReferences": {}
}