{
  "_format": "hh-sol-artifact-1",
  "contractName": "GrantRegistry",
  "sourceName": "contracts/GrantRegistry.sol",
  "abi": [
    {
      "inputs": [
        {
          "internalType": "address",
          "name": "_beneficiaryRegistry",
          "type": "address"
        }
      ],
      "stateMutability": "nonpayable",
      "type": "constructor"
    },
    {
      "anonymous": false,
      "inputs": [
        {
          "indexed": true,
          "internalType": "address",
          "name": "_oldAddress",
          "type": "address"
        },
        {
          "indexed": true,
          "internalType": "address",
          "name": "_newAddress",
          "type": "address"
        }
      ],
      "name": "CouncilUpdated",
      "type": "event"
    },
    {
      "anonymous": false,
      "inputs": [
        {
          "indexed": true,
          "internalType": "address",
          "name": "_oldAddress",
          "type": "address"
        },
        {
          "indexed": true,
          "internalType": "address",
          "name": "_newAddress",
          "type": "address"
        }
      ],
      "name": "GovernanceUpdated",
      "type": "event"
    },
    {
      "anonymous": false,
      "inputs": [
        {
          "indexed": false,
          "internalType": "uint8",
          "name": "termLength",
          "type": "uint8"
        },
        {
          "indexed": false,
          "internalType": "address[]",
          "name": "awardees",
          "type": "address[]"
        },
        {
          "indexed": false,
          "internalType": "uint8",
          "name": "grantShareType",
          "type": "uint8"
        },
        {
          "indexed": false,
          "internalType": "uint256[]",
          "name": "shares",
          "type": "uint256[]"
        }
      ],
      "name": "GrantCreated",
      "type": "event"
    },
    {
      "inputs": [
        {
          "internalType": "uint8",
          "name": "termLength",
          "type": "uint8"
        },
        {
          "internalType": "address[]",
          "name": "beneficiaries",
          "type": "address[]"
        },
        {
          "internalType": "uint256[]",
          "name": "shares",
          "type": "uint256[]"
        }
      ],
      "name": "createGrant",
      "outputs": [],
      "stateMutability": "nonpayable",
      "type": "function"
    },
    {
      "inputs": [
        {
          "internalType": "uint8",
          "name": "termLength",
          "type": "uint8"
        }
      ],
      "name": "getActiveAwardees",
      "outputs": [
        {
          "internalType": "address[]",
          "name": "",
          "type": "address[]"
        }
      ],
      "stateMutability": "view",
      "type": "function"
    },
    {
      "inputs": [
        {
          "internalType": "uint8",
          "name": "termLength",
          "type": "uint8"
        }
      ],
      "name": "getActiveGrant",
      "outputs": [
        {
          "internalType": "uint256[]",
          "name": "grant",
          "type": "uint256[]"
        }
      ],
      "stateMutability": "view",
      "type": "function"
    },
    {
      "inputs": [
        {
          "internalType": "uint8",
          "name": "termLength",
          "type": "uint8"
        }
      ],
      "name": "grantHasExpired",
      "outputs": [
        {
          "internalType": "bool",
          "name": "",
          "type": "bool"
        }
      ],
      "stateMutability": "view",
      "type": "function"
    },
    {
      "inputs": [
        {
          "internalType": "address",
          "name": "_address",
          "type": "address"
        }
      ],
      "name": "setCouncil",
      "outputs": [],
      "stateMutability": "nonpayable",
      "type": "function"
    },
    {
      "inputs": [
        {
          "internalType": "uint8[]",
          "name": "grantTerms",
          "type": "uint8[]"
        }
      ],
      "name": "setEnabledGrantTerms",
      "outputs": [],
      "stateMutability": "nonpayable",
      "type": "function"
    },
    {
      "inputs": [
        {
          "internalType": "address",
          "name": "_address",
          "type": "address"
        }
      ],
      "name": "setGovernance",
      "outputs": [],
      "stateMutability": "nonpayable",
      "type": "function"
    },
    {
      "inputs": [
        {
          "internalType": "uint8",
          "name": "_grantShareType",
          "type": "uint8"
        }
      ],
      "name": "setGrantShareType",
      "outputs": [],
      "stateMutability": "nonpayable",
      "type": "function"
    }
  ],
  "bytecode": "0x6080604052611917600455601e6004540260055560036005540260065561016d6004540260075534801561003257600080fd5b506040516117f53803806117f58339818101604052602081101561005557600080fd5b8101908080519060200190929190505050336000806101000a81548173ffffffffffffffffffffffffffffffffffffffff021916908373ffffffffffffffffffffffffffffffffffffffff16021790555033600160006101000a81548173ffffffffffffffffffffffffffffffffffffffff021916908373ffffffffffffffffffffffffffffffffffffffff160217905550600160036000600260ff1660ff16815260200190815260200160002060006101000a81548160ff0219169083151502179055506001600260146101000a81548160ff021916908360ff16021790555080600260006101000a81548173ffffffffffffffffffffffffffffffffffffffff021916908373ffffffffffffffffffffffffffffffffffffffff1602179055505061166e806101876000396000f3fe608060405234801561001057600080fd5b50600436106100885760003560e01c8063ab033ea91161005b578063ab033ea9146102b8578063d9974f78146102fc578063f8620a9a14610375578063fd5610b6146103bc57610088565b8063222244ac1461008d57806326b2f36c146101135780633ee646eb146101ee578063a6d80a2714610274575b600080fd5b6100bc600480360360208110156100a357600080fd5b81019080803560ff1690602001909291905050506103ed565b6040518080602001828103825283818151815260200191508051906020019060200280838360005b838110156100ff5780820151818401526020810190506100e4565b505050509050019250505060405180910390f35b6101ec6004803603606081101561012957600080fd5b81019080803560ff1690602001909291908035906020019064010000000081111561015357600080fd5b82018360208201111561016557600080fd5b8035906020019184602083028401116401000000008311171561018757600080fd5b9091929391929390803590602001906401000000008111156101a857600080fd5b8201836020820111156101ba57600080fd5b803590602001918460208302840111640100000000831117156101dc57600080fd5b909192939192939050505061054f565b005b61021d6004803603602081101561020457600080fd5b81019080803560ff169060200190929190505050610caf565b6040518080602001828103825283818151815260200191508051906020019060200280838360005b83811015610260578082015181840152602081019050610245565b505050509050019250505060405180910390f35b6102b66004803603602081101561028a57600080fd5b81019080803573ffffffffffffffffffffffffffffffffffffffff169060200190929190505050610e43565b005b6102fa600480360360208110156102ce57600080fd5b81019080803573ffffffffffffffffffffffffffffffffffffffff16906020019092919050505061106f565b005b6103736004803603602081101561031257600080fd5b810190808035906020019064010000000081111561032f57600080fd5b82018360208201111561034157600080fd5b8035906020019184602083028401116401000000008311171561036357600080fd5b9091929391929390505050611297565b005b6103a46004803603602081101561038b57600080fd5b81019080803560ff1690602001909291905050506113c7565b60405180821515815260200191505060405180910390f35b6103eb600480360360208110156103d257600080fd5b81019080803560ff1690602001909291905050506113ef565b005b606080600860008460ff1660ff16815260200190815260200160002060020160029054906101000a900460ff1660ff1667ffffffffffffffff8111801561043357600080fd5b506040519080825280602002602001820160405280156104625781602001602082028036833780820191505090505b50905060005b600860008560ff1660ff16815260200190815260200160002060020160029054906101000a900460ff1660ff1681101561054557600960008560ff1660ff16815260200190815260200160002081815481106104c057fe5b906000526020600020906002020160000160009054906101000a900473ffffffffffffffffffffffffffffffffffffffff168282815181106104fe57fe5b602002602001019073ffffffffffffffffffffffffffffffffffffffff16908173ffffffffffffffffffffffffffffffffffffffff16815250508080600101915050610468565b5080915050919050565b60008054906101000a900473ffffffffffffffffffffffffffffffffffffffff1673ffffffffffffffffffffffffffffffffffffffff163373ffffffffffffffffffffffffffffffffffffffff1614610610576040517f08c379a000000000000000000000000000000000000000000000000000000000815260040180806020018281038252600b8152602001807f21676f7665726e616e636500000000000000000000000000000000000000000081525060200191505060405180910390fd5b610619856113c7565b61068b576040517f08c379a000000000000000000000000000000000000000000000000000000000815260040180806020018281038252600d8152602001807f6772616e7449734163746976650000000000000000000000000000000000000081525060200191505060405180910390fd5b600360008660ff1660ff16815260200190815260200160002060009054906101000a900460ff16610724576040517f08c379a00000000000000000000000000000000000000000000000000000000081526004018080602001828103825260138152602001807f7465726d4c656e6774682064697361626c65640000000000000000000000000081525060200191505060405180910390fd5b6000600260009054906101000a900473ffffffffffffffffffffffffffffffffffffffff16905060608585905067ffffffffffffffff8111801561076757600080fd5b506040519080825280602002602001820160405280156107965781602001602082028036833780820191505090505b50905060608686905067ffffffffffffffff811180156107b557600080fd5b506040519080825280602002602001820160405280156107e45781602001602082028036833780820191505090505b5090506040518060a001604052804381526020016108048a60ff1661155b565b430181526020018960ff168152602001600260149054906101000a900460ff1660ff168152602001600060ff16815250600860008a60ff1660ff168152602001908152602001600020600082015181600001556020820151816001015560408201518160020160006101000a81548160ff021916908360ff16021790555060608201518160020160016101000a81548160ff021916908360ff16021790555060808201518160020160026101000a81548160ff021916908360ff16021790555090505060005b87879050811015610bbe578373ffffffffffffffffffffffffffffffffffffffff166375e71d6d8989848181106108fd57fe5b9050602002013573ffffffffffffffffffffffffffffffffffffffff166040518263ffffffff1660e01b8152600401808273ffffffffffffffffffffffffffffffffffffffff16815260200191505060206040518083038186803b15801561096457600080fd5b505afa158015610978573d6000803e3d6000fd5b505050506040513d602081101561098e57600080fd5b810190808051906020019092919050505015610bb1578787828181106109b057fe5b9050602002013573ffffffffffffffffffffffffffffffffffffffff168382815181106109d957fe5b602002602001019073ffffffffffffffffffffffffffffffffffffffff16908173ffffffffffffffffffffffffffffffffffffffff1681525050858582818110610a1f57fe5b90506020020135828281518110610a3257fe5b602002602001018181525050600860008a60ff1660ff168152602001908152602001600020600201600281819054906101000a900460ff168092919060010191906101000a81548160ff021916908360ff16021790555050600960008a60ff1660ff16815260200190815260200160002060405180606001604052808a8a6000818110610abb57fe5b9050602002013573ffffffffffffffffffffffffffffffffffffffff1673ffffffffffffffffffffffffffffffffffffffff1681526020018b60ff16815260200188886000818110610b0957fe5b90506020020135815250908060018154018082558091505060019003906000526020600020906002020160009091909190915060008201518160000160006101000a81548173ffffffffffffffffffffffffffffffffffffffff021916908373ffffffffffffffffffffffffffffffffffffffff16021790555060208201518160000160146101000a81548160ff021916908360ff1602179055506040820151816001015550505b80806001019150506108ca565b507f304437f3c54924387701df34182f54d02676f1bc4dcb81f65173499b246a76398883600260149054906101000a900460ff1684604051808560ff168152602001806020018460ff16815260200180602001838103835286818151815260200191508051906020019060200280838360005b83811015610c4c578082015181840152602081019050610c31565b50505050905001838103825284818151815260200191508051906020019060200280838360005b83811015610c8e578082015181840152602081019050610c73565b50505050905001965050505050505060405180910390a15050505050505050565b606080600567ffffffffffffffff81118015610cca57600080fd5b50604051908082528060200260200182016040528015610cf95781602001602082028036833780820191505090505b509050600860008460ff1660ff1681526020019081526020016000206000015481600081518110610d2657fe5b602002602001018181525050600860008460ff1660ff1681526020019081526020016000206001015481600181518110610d5c57fe5b602002602001018181525050600860008460ff1660ff16815260200190815260200160002060020160009054906101000a900460ff1660ff1681600281518110610da257fe5b602002602001018181525050600860008460ff1660ff16815260200190815260200160002060020160019054906101000a900460ff1660ff1681600381518110610de857fe5b602002602001018181525050600860008460ff1660ff16815260200190815260200160002060020160029054906101000a900460ff1660ff1681600481518110610e2e57fe5b60200260200101818152505080915050919050565b808073ffffffffffffffffffffffffffffffffffffffff168173ffffffffffffffffffffffffffffffffffffffff1614610ee5576040517f08c379a000000000000000000000000000000000000000000000000000000000815260040180806020018281038252600f8152602001807f696e76616c69642061646472657373000000000000000000000000000000000081525060200191505060405180910390fd5b600160009054906101000a900473ffffffffffffffffffffffffffffffffffffffff1673ffffffffffffffffffffffffffffffffffffffff163373ffffffffffffffffffffffffffffffffffffffff1614610fa8576040517f08c379a00000000000000000000000000000000000000000000000000000000081526004018080602001828103825260088152602001807f21636f756e63696c00000000000000000000000000000000000000000000000081525060200191505060405180910390fd5b6000600160009054906101000a900473ffffffffffffffffffffffffffffffffffffffff16905082600160006101000a81548173ffffffffffffffffffffffffffffffffffffffff021916908373ffffffffffffffffffffffffffffffffffffffff1602179055508273ffffffffffffffffffffffffffffffffffffffff168173ffffffffffffffffffffffffffffffffffffffff167ff9b44e2878878d05524a3b43b39400b062ad001a332fe447f97053d9312a11a160405160405180910390a3505050565b808073ffffffffffffffffffffffffffffffffffffffff168173ffffffffffffffffffffffffffffffffffffffff1614611111576040517f08c379a000000000000000000000000000000000000000000000000000000000815260040180806020018281038252600f8152602001807f696e76616c69642061646472657373000000000000000000000000000000000081525060200191505060405180910390fd5b60008054906101000a900473ffffffffffffffffffffffffffffffffffffffff1673ffffffffffffffffffffffffffffffffffffffff163373ffffffffffffffffffffffffffffffffffffffff16146111d2576040517f08c379a000000000000000000000000000000000000000000000000000000000815260040180806020018281038252600b8152602001807f21676f7665726e616e636500000000000000000000000000000000000000000081525060200191505060405180910390fd5b60008060009054906101000a900473ffffffffffffffffffffffffffffffffffffffff169050826000806101000a81548173ffffffffffffffffffffffffffffffffffffffff021916908373ffffffffffffffffffffffffffffffffffffffff1602179055508273ffffffffffffffffffffffffffffffffffffffff168173ffffffffffffffffffffffffffffffffffffffff167f434a2db650703b36c824e745330d6397cdaa9ee2cc891a4938ae853e1c50b68d60405160405180910390a3505050565b60008054906101000a900473ffffffffffffffffffffffffffffffffffffffff1673ffffffffffffffffffffffffffffffffffffffff163373ffffffffffffffffffffffffffffffffffffffff1614611358576040517f08c379a000000000000000000000000000000000000000000000000000000000815260040180806020018281038252600b8152602001807f21676f7665726e616e636500000000000000000000000000000000000000000081525060200191505060405180910390fd5b61136061159d565b60005b828290508110156113c25760016003600085858581811061138057fe5b9050602002013560ff1660ff1660ff16815260200190815260200160002060006101000a81548160ff0219169083151502179055508080600101915050611363565b505050565b600043600860008460ff1660ff16815260200190815260200160002060010154109050919050565b60008054906101000a900473ffffffffffffffffffffffffffffffffffffffff1673ffffffffffffffffffffffffffffffffffffffff163373ffffffffffffffffffffffffffffffffffffffff16146114b0576040517f08c379a000000000000000000000000000000000000000000000000000000000815260040180806020018281038252600b8152602001807f21676f7665726e616e636500000000000000000000000000000000000000000081525060200191505060405180910390fd5b600160ff168160ff1614806114cb5750600260ff168160ff16145b61153d576040517f08c379a00000000000000000000000000000000000000000000000000000000081526004018080602001828103825260078152602001807f696e76616c69640000000000000000000000000000000000000000000000000081525060200191505060405180910390fd5b80600260146101000a81548160ff021916908360ff16021790555050565b600080600160ff168314156115705760055490505b600260ff168314156115825760065490505b600360ff168314156115945760075490505b80915050919050565b600060036000600160ff1660ff16815260200190815260200160002060006101000a81548160ff021916908315150217905550600060036000600260ff1660ff16815260200190815260200160002060006101000a81548160ff021916908315150217905550600060036000600360ff1660ff16815260200190815260200160002060006101000a81548160ff02191690831515021790555056fea264697066735822122048e74004682a7c6cb46039b97c97cf00e068e6776f30bdf08bf217a731eec13a64736f6c63430007030033",
  "linkReferences": {},
  "deployedLinkReferences": {}
}