{
  "_format": "hh-sol-artifact-1",
  "contractName": "GrantElections",
  "sourceName": "contracts/GrantElections.sol",
  "abi": [
    {
      "inputs": [
        {
          "internalType": "contract IStaking",
          "name": "_staking",
          "type": "address"
        },
        {
          "internalType": "contract IBeneficiaryRegistry",
          "name": "_beneficiaryRegistry",
          "type": "address"
        }
      ],
      "stateMutability": "nonpayable",
      "type": "constructor"
    },
    {
      "anonymous": false,
      "inputs": [
        {
          "indexed": false,
          "internalType": "address",
          "name": "_beneficiary",
          "type": "address"
        },
        {
          "indexed": false,
          "internalType": "enum GrantElections.ElectionTerm",
          "name": "_term",
          "type": "uint8"
        }
      ],
      "name": "BeneficiaryRegistered",
      "type": "event"
    },
    {
      "anonymous": false,
      "inputs": [
        {
          "indexed": false,
          "internalType": "address",
          "name": "_user",
          "type": "address"
        },
        {
          "indexed": false,
          "internalType": "enum GrantElections.ElectionTerm",
          "name": "_term",
          "type": "uint8"
        }
      ],
      "name": "UserVoted",
      "type": "event"
    },
    {
      "inputs": [
        {
          "internalType": "address",
          "name": "_beneficiary",
          "type": "address"
        },
        {
          "internalType": "enum GrantElections.ElectionTerm",
          "name": "_term",
          "type": "uint8"
        }
      ],
      "name": "_isEligibleBeneficiary",
      "outputs": [
        {
          "internalType": "bool",
          "name": "",
          "type": "bool"
        }
      ],
      "stateMutability": "view",
      "type": "function"
    },
    {
      "inputs": [
        {
          "internalType": "enum GrantElections.ElectionTerm",
          "name": "_term",
          "type": "uint8"
        }
      ],
      "name": "getRegisteredBeneficiaries",
      "outputs": [
        {
          "internalType": "address[]",
          "name": "",
          "type": "address[]"
        }
      ],
      "stateMutability": "nonpayable",
      "type": "function"
    },
    {
      "inputs": [
        {
          "internalType": "enum GrantElections.ElectionTerm",
          "name": "_grantTerm",
          "type": "uint8"
        }
      ],
      "name": "initialize",
      "outputs": [],
      "stateMutability": "nonpayable",
      "type": "function"
    },
    {
      "inputs": [
        {
          "internalType": "address",
          "name": "_beneficiary",
          "type": "address"
        },
        {
          "internalType": "enum GrantElections.ElectionTerm",
          "name": "_grantTerm",
          "type": "uint8"
        }
      ],
      "name": "registerForElection",
      "outputs": [],
      "stateMutability": "nonpayable",
      "type": "function"
    },
    {
      "inputs": [
        {
          "internalType": "address[]",
          "name": "_beneficiaries",
          "type": "address[]"
        },
        {
          "internalType": "uint8[]",
          "name": "_voiceCredits",
          "type": "uint8[]"
        },
        {
          "internalType": "enum GrantElections.ElectionTerm",
          "name": "_electionTerm",
          "type": "uint8"
        }
      ],
      "name": "vote",
      "outputs": [],
      "stateMutability": "nonpayable",
      "type": "function"
    }
  ],
  "bytecode": "0x608060405234801561001057600080fd5b50604051620018eb380380620018eb8339818101604052604081101561003557600080fd5b81019080805190602001909291908051906020019092919050505081603360006101000a81548173ffffffffffffffffffffffffffffffffffffffff021916908373ffffffffffffffffffffffffffffffffffffffff16021790555080603460006101000a81548173ffffffffffffffffffffffffffffffffffffffff021916908373ffffffffffffffffffffffffffffffffffffffff1602179055506100e06100e760201b60201c565b50506102e1565b60006024600060028111156100f857fe5b6003811061010257fe5b60050201905060018160000160016101000a81548160ff021916908360ff16021790555060038160000160006101000a81548160ff021916908360ff16021790555060018160030160006101000a81548160ff021916908315150217905550620151806007028160020181905550620151806007028160010181905550620151806015028160040181905550600060246001600281111561019f57fe5b600381106101a957fe5b60050201905060028160000160016101000a81548160ff021916908360ff16021790555060058160000160006101000a81548160ff021916908360ff16021790555060018260030160006101000a81548160ff02191690831515021790555062015180600e02816002018190555062015180600e0281600101819055506201518060530281600401819055506000602460028081111561024557fe5b6003811061024f57fe5b60050201905060038160000160016101000a81548160ff021916908360ff16021790555060078160000160006101000a81548160ff021916908360ff16021790555060018360030160006101000a81548160ff02191690831515021790555062015180601e02816002018190555062015180601e02816001018190555062015180610166028160040181905550505050565b6115fa80620002f16000396000f3fe608060405234801561001057600080fd5b50600436106100575760003560e01c80630857e3db1461005c5780634262a5fc146100c35780634351e6b61461011457806372b01c9a14610145578063ebbb4abf146101cb575b600080fd5b6100ab6004803603604081101561007257600080fd5b81019080803573ffffffffffffffffffffffffffffffffffffffff169060200190929190803560ff169060200190929190505050610324565b60405180821515815260200191505060405180910390f35b610112600480360360408110156100d957600080fd5b81019080803573ffffffffffffffffffffffffffffffffffffffff169060200190929190803560ff169060200190929190505050610466565b005b6101436004803603602081101561012a57600080fd5b81019080803560ff16906020019092919050505061076c565b005b6101746004803603602081101561015b57600080fd5b81019080803560ff169060200190929190505050610b2f565b6040518080602001828103825283818151815260200191508051906020019060200280838360005b838110156101b757808201518184015260208101905061019c565b505050509050019250505060405180910390f35b610322600480360360608110156101e157600080fd5b81019080803590602001906401000000008111156101fe57600080fd5b82018360208201111561021057600080fd5b8035906020019184602083028401116401000000008311171561023257600080fd5b919080806020026020016040519081016040528093929190818152602001838360200280828437600081840152601f19601f8201169050808301925050505050505091929192908035906020019064010000000081111561029257600080fd5b8201836020820111156102a457600080fd5b803590602001918460208302840111640100000000831117156102c657600080fd5b919080806020026020016040519081016040528093929190818152602001838360200280828437600081840152601f19601f820116905080830192505050505050509192919290803560ff169060200190929190505050610bdf565b005b60008082600281111561033357fe5b60ff166003811061034057fe5b600b020160010160008473ffffffffffffffffffffffffffffffffffffffff1673ffffffffffffffffffffffffffffffffffffffff16815260200190815260200160002060009054906101000a900460ff16801561045e5750603460009054906101000a900473ffffffffffffffffffffffffffffffffffffffff1673ffffffffffffffffffffffffffffffffffffffff166375e71d6d846040518263ffffffff1660e01b8152600401808273ffffffffffffffffffffffffffffffffffffffff16815260200191505060206040518083038186803b15801561042257600080fd5b505afa158015610436573d6000803e3d6000fd5b505050506040513d602081101561044c57600080fd5b81019080805190602001909291905050505b905092915050565b600081600281111561047457fe5b90506000600281111561048357fe5b60008260ff166003811061049357fe5b600b020160030160019054906101000a900460ff1660028111156104b357fe5b14610509576040517f08c379a00000000000000000000000000000000000000000000000000000000081526004018080602001828103825260228152602001806115126022913960400191505060405180910390fd5b603460009054906101000a900473ffffffffffffffffffffffffffffffffffffffff1673ffffffffffffffffffffffffffffffffffffffff166375e71d6d846040518263ffffffff1660e01b8152600401808273ffffffffffffffffffffffffffffffffffffffff16815260200191505060206040518083038186803b15801561059257600080fd5b505afa1580156105a6573d6000803e3d6000fd5b505050506040513d60208110156105bc57600080fd5b8101908080519060200190929190505050610622576040517f08c379a00000000000000000000000000000000000000000000000000000000081526004018080602001828103825260288152602001806115796028913960400191505060405180910390fd5b600160008260ff166003811061063457fe5b600b020160010160008573ffffffffffffffffffffffffffffffffffffffff1673ffffffffffffffffffffffffffffffffffffffff16815260200190815260200160002060006101000a81548160ff02191690831515021790555060008160ff166003811061069f57fe5b600b0201600201839080600181540180825580915050600190039060005260206000200160009091909190916101000a81548173ffffffffffffffffffffffffffffffffffffffff021916908373ffffffffffffffffffffffffffffffffffffffff1602179055507f3cf8a99bc2cc1151c40f6aba9ca05d54b14c0435c6ae4e104cffc56b3ae9d9ca8383604051808373ffffffffffffffffffffffffffffffffffffffff16815260200182600281111561075657fe5b81526020019250505060405180910390a1505050565b600081600281111561077a57fe5b90506000808260ff166003811061078d57fe5b600b0201905080600a0160009054906101000a900460ff1680156107d757506002808111156107b857fe5b8160030160019054906101000a900460ff1660028111156107d557fe5b145b610849576040517f08c379a000000000000000000000000000000000000000000000000000000000815260040180806020018281038252601d8152602001807f656c656374696f6e2063616e277420626520737461727465642079657400000081525060200191505060405180910390fd5b80600a0160009054906101000a900460ff16801561088d575060028081111561086e57fe5b8160030160019054906101000a900460ff16600281111561088b57fe5b145b15610909576108a981600901544261128890919063ffffffff16565b81600401600401541015610908576040517f08c379a00000000000000000000000000000000000000000000000000000000081526004018080602001828103825260458152602001806115346045913960600191505060405180910390fd5b5b60008260ff166003811061091957fe5b600b02016000808201600061092e91906113f5565b60028201600061093e9190611419565b6003820160006101000a81549060ff02191690556003820160016101000a81549060ff021916905560048201600080820160006101000a81549060ff02191690556000820160016101000a81549060ff0219169055600182016000905560028201600090556003820160006101000a81549060ff0219169055600482016000905550506009820160009055600a820160006101000a81549060ff021916905550506000808360ff16600381106109f057fe5b600b0201905060248360ff1660038110610a0657fe5b60050201816004016000820160009054906101000a900460ff168160000160006101000a81548160ff021916908360ff1602179055506000820160019054906101000a900460ff168160000160016101000a81548160ff021916908360ff16021790555060018201548160010155600282015481600201556003820160009054906101000a900460ff168160030160006101000a81548160ff0219169083151502179055506004820154816004015590505060008160030160016101000a81548160ff02191690836002811115610ad957fe5b0217905550838160030160006101000a81548160ff02191690836002811115610afe57fe5b0217905550428160090181905550600181600a0160006101000a81548160ff02191690831515021790555050505050565b60606000826002811115610b3f57fe5b60ff1660038110610b4c57fe5b600b0201600201805480602002602001604051908101604052809291908181526020018280548015610bd357602002820191906000526020600020905b8160009054906101000a900473ffffffffffffffffffffffffffffffffffffffff1673ffffffffffffffffffffffffffffffffffffffff1681526020019060010190808311610b89575b50505050509050919050565b60016002811115610bec57fe5b6000826002811115610bfa57fe5b60ff1660038110610c0757fe5b600b020160030160019054906101000a900460ff166002811115610c2757fe5b14610c9a576040517f08c379a000000000000000000000000000000000000000000000000000000000815260040180806020018281038252601c8152602001807f456c656374696f6e206e6f74206f70656e20666f7220766f74696e670000000081525060200191505060405180910390fd5b6000825111610d11576040517f08c379a000000000000000000000000000000000000000000000000000000000815260040180806020018281038252601a8152602001807f566f69636520637265646974732061726520726571756972656400000000000081525060200191505060405180910390fd5b6000835111610d88576040517f08c379a000000000000000000000000000000000000000000000000000000000815260040180806020018281038252601a8152602001807f42656e656669636961726965732061726520726571756972656400000000000081525060200191505060405180910390fd5b600080603360009054906101000a900473ffffffffffffffffffffffffffffffffffffffff1673ffffffffffffffffffffffffffffffffffffffff1663034f98e5336040518263ffffffff1660e01b8152600401808273ffffffffffffffffffffffffffffffffffffffff16815260200191505060206040518083038186803b158015610e1457600080fd5b505afa158015610e28573d6000803e3d6000fd5b505050506040513d6020811015610e3e57600080fd5b8101908080519060200190929190505050905060008111610eaa576040517f08c379a00000000000000000000000000000000000000000000000000000000081526004018080602001828103825260248152602001806115a16024913960400191505060405180910390fd5b60005b85518160ff16101561120a57610ed9868260ff1681518110610ecb57fe5b602002602001015185610324565b610f4b576040517f08c379a00000000000000000000000000000000000000000000000000000000081526004018080602001828103825260168152602001807f696e656c696769626c652062656e65666963696172790000000000000000000081525060200191505060405180910390fd5b610f77858260ff1681518110610f5d57fe5b602002602001015160ff168461130b90919063ffffffff16565b92506000610f9d868360ff1681518110610f8d57fe5b602002602001015160ff16611393565b9050610fa761143a565b60405180606001604052803373ffffffffffffffffffffffffffffffffffffffff168152602001898560ff1681518110610fdd57fe5b602002602001015173ffffffffffffffffffffffffffffffffffffffff168152602001838152509050600086600281111561101457fe5b60ff166003811061102157fe5b600b020160000181908060018154018082558091505060019003906000526020600020906003020160009091909190915060008201518160000160006101000a81548173ffffffffffffffffffffffffffffffffffffffff021916908373ffffffffffffffffffffffffffffffffffffffff16021790555060208201518160010160006101000a81548173ffffffffffffffffffffffffffffffffffffffff021916908373ffffffffffffffffffffffffffffffffffffffff16021790555060408201518160020155505061117b826021600089600281111561110057fe5b600281111561110b57fe5b815260200190815260200160002060008b8760ff168151811061112a57fe5b602002602001015173ffffffffffffffffffffffffffffffffffffffff1673ffffffffffffffffffffffffffffffffffffffff1681526020019081526020016000205461130b90919063ffffffff16565b6021600088600281111561118b57fe5b600281111561119657fe5b815260200190815260200160002060008a8660ff16815181106111b557fe5b602002602001015173ffffffffffffffffffffffffffffffffffffffff1673ffffffffffffffffffffffffffffffffffffffff1681526020019081526020016000208190555050508080600101915050610ead565b5080821115611281576040517f08c379a000000000000000000000000000000000000000000000000000000000815260040180806020018281038252601a8152602001807f496e73756666696369656e7420766f696365206372656469747300000000000081525060200191505060405180910390fd5b5050505050565b600082821115611300576040517f08c379a000000000000000000000000000000000000000000000000000000000815260040180806020018281038252601e8152602001807f536166654d6174683a207375627472616374696f6e206f766572666c6f77000081525060200191505060405180910390fd5b818303905092915050565b600080828401905083811015611389576040517f08c379a000000000000000000000000000000000000000000000000000000000815260040180806020018281038252601b8152602001807f536166654d6174683a206164646974696f6e206f766572666c6f77000000000081525060200191505060405180910390fd5b8091505092915050565b600060038211156113e25781905060006001600284816113af57fe5b040190505b818110156113dc578091506002818285816113cb57fe5b0401816113d457fe5b0490506113b4565b506113f0565b600082146113ef57600190505b5b919050565b50805460008255600302906000526020600020908101906114169190611487565b50565b508054600082559060005260206000209081019061143791906114f4565b50565b6040518060600160405280600073ffffffffffffffffffffffffffffffffffffffff168152602001600073ffffffffffffffffffffffffffffffffffffffff168152602001600081525090565b5b808211156114f057600080820160006101000a81549073ffffffffffffffffffffffffffffffffffffffff02191690556001820160006101000a81549073ffffffffffffffffffffffffffffffffffffffff0219169055600282016000905550600301611488565b5090565b5b8082111561150d5760008160009055506001016114f5565b509056fe656c656374696f6e206e6f74206f70656e20666f7220726567697374726174696f6e63616e2774207374617274206e657720656c656374696f6e2c206e6f7420656e6f7567682074696d6520656c61707365642073696e6365206c61737420656c656374696f6e61646472657373206973206e6f7420656c696769626c6520666f7220726567697374726174696f6e6d757374206861766520766f69636520637265646974732066726f6d207374616b696e67a264697066735822122059ed4c25dd7f32c2f9dcbbbf2f25a0e97432b82a6fe9560bc4ab69473b28387e64736f6c63430007030033",
  "linkReferences": {},
  "deployedLinkReferences": {}
}